{
  "_format": "hh-sol-artifact-1",
  "contractName": "Treasury",
  "sourceName": "contracts/Treasury.sol",
  "abi": [
    {
      "inputs": [],
      "stateMutability": "nonpayable",
      "type": "constructor"
    },
    {
      "anonymous": false,
      "inputs": [
        {
          "indexed": false,
          "internalType": "address",
          "name": "_address",
          "type": "address"
        }
      ],
      "name": "LogAddress",
      "type": "event"
    },
    {
      "anonymous": false,
      "inputs": [
        {
          "indexed": false,
          "internalType": "string",
          "name": "_reason",
          "type": "string"
        }
      ],
      "name": "LogError",
      "type": "event"
    },
    {
      "anonymous": false,
      "inputs": [
        {
          "indexed": false,
          "internalType": "uint256",
          "name": "_msgValue",
          "type": "uint256"
        }
      ],
      "name": "LogMsgValue",
      "type": "event"
    },
    {
      "stateMutability": "payable",
      "type": "fallback"
    },
    {
      "inputs": [],
      "name": "deposit",
      "outputs": [],
      "stateMutability": "payable",
      "type": "function"
    },
    {
      "inputs": [],
      "name": "withdraw",
      "outputs": [],
      "stateMutability": "nonpayable",
      "type": "function"
    },
    {
      "stateMutability": "payable",
      "type": "receive"
    }
  ],
  "bytecode": "0x608060405234801561001057600080fd5b506100596040518060400160405280601781526020017f5472656173757279206973206465706c6f7965642e2e2e00000000000000000081525061028160201b61034e1760201c565b731e40b561ec587036f9789af83236f057d1ed2a906001600160a01b031663365ccbbf6040518163ffffffff1660e01b815260040160006040518083038186803b1580156100a657600080fd5b505afa1580156100ba573d6000803e3d6000fd5b505050506040513d6000823e601f3d908101601f1916820160405260208110156100e357600080fd5b810190808051604051939291908464010000000082111561010357600080fd5b90830190602082018581111561011857600080fd5b825186602082028301116401000000008211171561013557600080fd5b82525081516020918201928201910280838360005b8381101561016257818101518382015260200161014a565b50505050919091016040525050825161018393600093506020019150610350565b506000808154811061019157fe5b60009182526020918290200154600180546001600160a01b03199081166001600160a01b0393841617918290556003805490911673d0a1e359811322d97991e03f863a0c30c2cf029c17905560408051630261bf8b60e01b815290519190921692630261bf8b9260048082019391829003018186803b15801561021357600080fd5b505afa158015610227573d6000803e3d6000fd5b505050506040513d602081101561023d57600080fd5b5051600280546001600160a01b039092166001600160a01b03199283161790556004805490911673a61ca04df33b72b235a8a28cfb535bb7a5271b701790556103d4565b61032c816040516024018080602001828103825283818151815260200191508051906020019080838360005b838110156102c55781810151838201526020016102ad565b50505050905090810190601f1680156102f25780820380516001836020036101000a031916815260200191505b5060408051601f198184030181529190526020810180516001600160e01b0390811663104c13eb60e21b1790915290935061032f16915050565b50565b80516a636f6e736f6c652e6c6f67602083016000808483855afa5050505050565b8280548282559060005260206000209081019282156103a5579160200282015b828111156103a557825182546001600160a01b0319166001600160a01b03909116178255602090920191600190910190610370565b506103b19291506103b5565b5090565b5b808211156103b15780546001600160a01b03191681556001016103b6565b61046f806103e36000396000f3fe60806040526004361061002d5760003560e01c80633ccfd60b146100c9578063d0e30db0146100de57610092565b36610092573373eeeeeeeeeeeeeeeeeeeeeeeeeeeeeeeeeeeeeeee14610090576040805162461bcd60e51b8152602060048201526013602482015272149958d95a5d99481b9bdd08185b1b1bddd959606a1b604482015290519081900360640190fd5b005b60405162461bcd60e51b81526004018080602001828103825260248152602001806104166024913960400191505060405180910390fd5b3480156100d557600080fd5b506100906100e6565b610090610115565b60405133904780156108fc02916000818181858888f19350505050158015610112573d6000803e3d6000fd5b50565b34610159576040805162461bcd60e51b815260206004820152600f60248201526e0c08195d1a0819195c1bdcda5d1959608a1b604482015290519081900360640190fd5b60035460408051630d0e30db60e41b8152905130926001600160a01b03169163d0e30db091349160048082019260009290919082900301818588803b1580156101a157600080fd5b505af11580156101b5573d6000803e3d6000fd5b50506003546002546040805163095ea7b360e01b81526001600160a01b0392831660048201526000196024820152905191909216945063095ea7b39350604480830193506020928290030181600087803b15801561021257600080fd5b505af1158015610226573d6000803e3d6000fd5b505050506040513d602081101561023c57600080fd5b5050600254600354604080516370a0823160e01b81526001600160a01b03858116600483015291519382169363e8eda9df9373d0a1e359811322d97991e03f863a0c30c2cf029c9316916370a08231916024808301926020929190829003018186803b1580156102ab57600080fd5b505afa1580156102bf573d6000803e3d6000fd5b505050506040513d60208110156102d557600080fd5b5051604080516001600160e01b031960e086901b1681526001600160a01b0393841660048201526024810192909252918516604482015260006064820181905291516084808301939282900301818387803b15801561033357600080fd5b505af1158015610347573d6000803e3d6000fd5b5050505050565b610112816040516024018080602001828103825283818151815260200191508051906020019080838360005b8381101561039257818101518382015260200161037a565b50505050905090810190601f1680156103bf5780820380516001836020036101000a031916815260200191505b5060408051601f198184030181529190526020810180516001600160e01b031663104c13eb60e21b17905292506103f4915050565b80516a636f6e736f6c652e6c6f67602083016000808483855afa505050505056fe54726561737572792e736f6c202d3e2046616c6c6261636b206e6f7420616c6c6f776564a2646970667358221220b18d1356e8c5ae72b0659cfca9e9a34e52bbe22df62b1bdc22169ea5be7a2f0664736f6c634300060c0033",
  "linkReferences": {},
  "deployedLinkReferences": {}
}